{
  "contractName": "SmartContract",
  "abi": [
    {
      "inputs": [
        {
          "internalType": "string",
          "name": "_name",
          "type": "string"
        },
        {
          "internalType": "string",
          "name": "_symbol",
          "type": "string"
        },
        {
          "internalType": "string",
          "name": "_initBaseURI",
          "type": "string"
        },
        {
          "internalType": "string",
          "name": "_initNotRevealedUri",
          "type": "string"
        }
      ],
      "stateMutability": "nonpayable",
      "type": "constructor"
    },
    {
      "anonymous": false,
      "inputs": [
        {
          "indexed": true,
          "internalType": "address",
          "name": "owner",
          "type": "address"
        },
        {
          "indexed": true,
          "internalType": "address",
          "name": "approved",
          "type": "address"
        },
        {
          "indexed": true,
          "internalType": "uint256",
          "name": "tokenId",
          "type": "uint256"
        }
      ],
      "name": "Approval",
      "type": "event"
    },
    {
      "anonymous": false,
      "inputs": [
        {
          "indexed": true,
          "internalType": "address",
          "name": "owner",
          "type": "address"
        },
        {
          "indexed": true,
          "internalType": "address",
          "name": "operator",
          "type": "address"
        },
        {
          "indexed": false,
          "internalType": "bool",
          "name": "approved",
          "type": "bool"
        }
      ],
      "name": "ApprovalForAll",
      "type": "event"
    },
    {
      "anonymous": false,
      "inputs": [
        {
          "indexed": true,
          "internalType": "address",
          "name": "previousOwner",
          "type": "address"
        },
        {
          "indexed": true,
          "internalType": "address",
          "name": "newOwner",
          "type": "address"
        }
      ],
      "name": "OwnershipTransferred",
      "type": "event"
    },
    {
      "anonymous": false,
      "inputs": [
        {
          "indexed": true,
          "internalType": "address",
          "name": "from",
          "type": "address"
        },
        {
          "indexed": true,
          "internalType": "address",
          "name": "to",
          "type": "address"
        },
        {
          "indexed": true,
          "internalType": "uint256",
          "name": "tokenId",
          "type": "uint256"
        }
      ],
      "name": "Transfer",
      "type": "event"
    },
    {
      "inputs": [
        {
          "internalType": "address",
          "name": "to",
          "type": "address"
        },
        {
          "internalType": "uint256",
          "name": "tokenId",
          "type": "uint256"
        }
      ],
      "name": "approve",
      "outputs": [],
      "stateMutability": "nonpayable",
      "type": "function"
    },
    {
      "inputs": [
        {
          "internalType": "address",
          "name": "owner",
          "type": "address"
        }
      ],
      "name": "balanceOf",
      "outputs": [
        {
          "internalType": "uint256",
          "name": "",
          "type": "uint256"
        }
      ],
      "stateMutability": "view",
      "type": "function",
      "constant": true
    },
    {
      "inputs": [],
      "name": "baseExtension",
      "outputs": [
        {
          "internalType": "string",
          "name": "",
          "type": "string"
        }
      ],
      "stateMutability": "view",
      "type": "function",
      "constant": true
    },
    {
      "inputs": [],
      "name": "cost",
      "outputs": [
        {
          "internalType": "uint256",
          "name": "",
          "type": "uint256"
        }
      ],
      "stateMutability": "view",
      "type": "function",
      "constant": true
    },
    {
      "inputs": [
        {
          "internalType": "uint256",
          "name": "tokenId",
          "type": "uint256"
        }
      ],
      "name": "getApproved",
      "outputs": [
        {
          "internalType": "address",
          "name": "",
          "type": "address"
        }
      ],
      "stateMutability": "view",
      "type": "function",
      "constant": true
    },
    {
      "inputs": [
        {
          "internalType": "address",
          "name": "owner",
          "type": "address"
        },
        {
          "internalType": "address",
          "name": "operator",
          "type": "address"
        }
      ],
      "name": "isApprovedForAll",
      "outputs": [
        {
          "internalType": "bool",
          "name": "",
          "type": "bool"
        }
      ],
      "stateMutability": "view",
      "type": "function",
      "constant": true
    },
    {
      "inputs": [],
      "name": "maxMintAmount",
      "outputs": [
        {
          "internalType": "uint256",
          "name": "",
          "type": "uint256"
        }
      ],
      "stateMutability": "view",
      "type": "function",
      "constant": true
    },
    {
      "inputs": [],
      "name": "maxSupply",
      "outputs": [
        {
          "internalType": "uint256",
          "name": "",
          "type": "uint256"
        }
      ],
      "stateMutability": "view",
      "type": "function",
      "constant": true
    },
    {
      "inputs": [],
      "name": "name",
      "outputs": [
        {
          "internalType": "string",
          "name": "",
          "type": "string"
        }
      ],
      "stateMutability": "view",
      "type": "function",
      "constant": true
    },
    {
      "inputs": [],
      "name": "notRevealedUri",
      "outputs": [
        {
          "internalType": "string",
          "name": "",
          "type": "string"
        }
      ],
      "stateMutability": "view",
      "type": "function",
      "constant": true
    },
    {
      "inputs": [],
      "name": "owner",
      "outputs": [
        {
          "internalType": "address",
          "name": "",
          "type": "address"
        }
      ],
      "stateMutability": "view",
      "type": "function",
      "constant": true
    },
    {
      "inputs": [
        {
          "internalType": "uint256",
          "name": "tokenId",
          "type": "uint256"
        }
      ],
      "name": "ownerOf",
      "outputs": [
        {
          "internalType": "address",
          "name": "",
          "type": "address"
        }
      ],
      "stateMutability": "view",
      "type": "function",
      "constant": true
    },
    {
      "inputs": [],
      "name": "paused",
      "outputs": [
        {
          "internalType": "bool",
          "name": "",
          "type": "bool"
        }
      ],
      "stateMutability": "view",
      "type": "function",
      "constant": true
    },
    {
      "inputs": [],
      "name": "renounceOwnership",
      "outputs": [],
      "stateMutability": "nonpayable",
      "type": "function"
    },
    {
      "inputs": [],
      "name": "revealed",
      "outputs": [
        {
          "internalType": "bool",
          "name": "",
          "type": "bool"
        }
      ],
      "stateMutability": "view",
      "type": "function",
      "constant": true
    },
    {
      "inputs": [
        {
          "internalType": "address",
          "name": "from",
          "type": "address"
        },
        {
          "internalType": "address",
          "name": "to",
          "type": "address"
        },
        {
          "internalType": "uint256",
          "name": "tokenId",
          "type": "uint256"
        }
      ],
      "name": "safeTransferFrom",
      "outputs": [],
      "stateMutability": "nonpayable",
      "type": "function"
    },
    {
      "inputs": [
        {
          "internalType": "address",
          "name": "from",
          "type": "address"
        },
        {
          "internalType": "address",
          "name": "to",
          "type": "address"
        },
        {
          "internalType": "uint256",
          "name": "tokenId",
          "type": "uint256"
        },
        {
          "internalType": "bytes",
          "name": "_data",
          "type": "bytes"
        }
      ],
      "name": "safeTransferFrom",
      "outputs": [],
      "stateMutability": "nonpayable",
      "type": "function"
    },
    {
      "inputs": [
        {
          "internalType": "address",
          "name": "operator",
          "type": "address"
        },
        {
          "internalType": "bool",
          "name": "approved",
          "type": "bool"
        }
      ],
      "name": "setApprovalForAll",
      "outputs": [],
      "stateMutability": "nonpayable",
      "type": "function"
    },
    {
      "inputs": [
        {
          "internalType": "bytes4",
          "name": "interfaceId",
          "type": "bytes4"
        }
      ],
      "name": "supportsInterface",
      "outputs": [
        {
          "internalType": "bool",
          "name": "",
          "type": "bool"
        }
      ],
      "stateMutability": "view",
      "type": "function",
      "constant": true
    },
    {
      "inputs": [],
      "name": "symbol",
      "outputs": [
        {
          "internalType": "string",
          "name": "",
          "type": "string"
        }
      ],
      "stateMutability": "view",
      "type": "function",
      "constant": true
    },
    {
      "inputs": [
        {
          "internalType": "uint256",
          "name": "index",
          "type": "uint256"
        }
      ],
      "name": "tokenByIndex",
      "outputs": [
        {
          "internalType": "uint256",
          "name": "",
          "type": "uint256"
        }
      ],
      "stateMutability": "view",
      "type": "function",
      "constant": true
    },
    {
      "inputs": [
        {
          "internalType": "address",
          "name": "owner",
          "type": "address"
        },
        {
          "internalType": "uint256",
          "name": "index",
          "type": "uint256"
        }
      ],
      "name": "tokenOfOwnerByIndex",
      "outputs": [
        {
          "internalType": "uint256",
          "name": "",
          "type": "uint256"
        }
      ],
      "stateMutability": "view",
      "type": "function",
      "constant": true
    },
    {
      "inputs": [],
      "name": "totalSupply",
      "outputs": [
        {
          "internalType": "uint256",
          "name": "",
          "type": "uint256"
        }
      ],
      "stateMutability": "view",
      "type": "function",
      "constant": true
    },
    {
      "inputs": [
        {
          "internalType": "address",
          "name": "from",
          "type": "address"
        },
        {
          "internalType": "address",
          "name": "to",
          "type": "address"
        },
        {
          "internalType": "uint256",
          "name": "tokenId",
          "type": "uint256"
        }
      ],
      "name": "transferFrom",
      "outputs": [],
      "stateMutability": "nonpayable",
      "type": "function"
    },
    {
      "inputs": [
        {
          "internalType": "address",
          "name": "newOwner",
          "type": "address"
        }
      ],
      "name": "transferOwnership",
      "outputs": [],
      "stateMutability": "nonpayable",
      "type": "function"
    },
    {
      "inputs": [
        {
          "internalType": "uint256",
          "name": "_mintAmount",
          "type": "uint256"
        }
      ],
      "name": "mint",
      "outputs": [],
      "stateMutability": "payable",
      "type": "function",
      "payable": true
    },
    {
      "inputs": [
        {
          "internalType": "address",
          "name": "_owner",
          "type": "address"
        }
      ],
      "name": "walletOfOwner",
      "outputs": [
        {
          "internalType": "uint256[]",
          "name": "",
          "type": "uint256[]"
        }
      ],
      "stateMutability": "view",
      "type": "function",
      "constant": true
    },
    {
      "inputs": [
        {
          "internalType": "uint256",
          "name": "tokenId",
          "type": "uint256"
        }
      ],
      "name": "tokenURI",
      "outputs": [
        {
          "internalType": "string",
          "name": "",
          "type": "string"
        }
      ],
      "stateMutability": "view",
      "type": "function",
      "constant": true
    },
    {
      "inputs": [],
      "name": "reveal",
      "outputs": [],
      "stateMutability": "nonpayable",
      "type": "function"
    },
    {
      "inputs": [
        {
          "internalType": "uint256",
          "name": "_newCost",
          "type": "uint256"
        }
      ],
      "name": "setCost",
      "outputs": [],
      "stateMutability": "nonpayable",
      "type": "function"
    },
    {
      "inputs": [
        {
          "internalType": "uint256",
          "name": "_newmaxMintAmount",
          "type": "uint256"
        }
      ],
      "name": "setmaxMintAmount",
      "outputs": [],
      "stateMutability": "nonpayable",
      "type": "function"
    },
    {
      "inputs": [
        {
          "internalType": "string",
          "name": "_notRevealedURI",
          "type": "string"
        }
      ],
      "name": "setNotRevealedURI",
      "outputs": [],
      "stateMutability": "nonpayable",
      "type": "function"
    },
    {
      "inputs": [
        {
          "internalType": "string",
          "name": "_newBaseURI",
          "type": "string"
        }
      ],
      "name": "setBaseURI",
      "outputs": [],
      "stateMutability": "nonpayable",
      "type": "function"
    },
    {
      "inputs": [
        {
          "internalType": "string",
          "name": "_newBaseExtension",
          "type": "string"
        }
      ],
      "name": "setBaseExtension",
      "outputs": [],
      "stateMutability": "nonpayable",
      "type": "function"
    },
    {
      "inputs": [
        {
          "internalType": "bool",
          "name": "_state",
          "type": "bool"
        }
      ],
      "name": "pause",
      "outputs": [],
      "stateMutability": "nonpayable",
      "type": "function"
    },
    {
      "inputs": [],
      "name": "withdraw",
      "outputs": [],
      "stateMutability": "payable",
      "type": "function",
      "payable": true
    }
  ],
  "bytecode": "0x60c06040526005608081905264173539b7b760d91b60a09081526200002891600c919062000212565b5066b1a2bc2ec50000600d55612710600e556014600f556010805461ffff19166101001790553480156200005b57600080fd5b5060405162002aba38038062002aba8339810160408190526200007e9162000363565b8351849084906200009790600090602085019062000212565b508051620000ad90600190602084019062000212565b505050620000ca620000c4620000ea60201b60201c565b620000ee565b620000d58262000140565b620000e081620001a8565b505050506200049f565b3390565b600a80546001600160a01b038381166001600160a01b0319831681179093556040519116919082907f8be0079c531659141344cd1fd0a4f28419497f9722a3daafe3b4186f6b6457e090600090a35050565b6200014a620000ea565b6001600160a01b03166200015d62000203565b6001600160a01b0316146200018f5760405162461bcd60e51b8152600401620001869062000417565b60405180910390fd5b8051620001a490600b90602084019062000212565b5050565b620001b2620000ea565b6001600160a01b0316620001c562000203565b6001600160a01b031614620001ee5760405162461bcd60e51b8152600401620001869062000417565b8051620001a490601190602084019062000212565b600a546001600160a01b031690565b82805462000220906200044c565b90600052602060002090601f0160209004810192826200024457600085556200028f565b82601f106200025f57805160ff19168380011785556200028f565b828001600101855582156200028f579182015b828111156200028f57825182559160200191906001019062000272565b506200029d929150620002a1565b5090565b5b808211156200029d5760008155600101620002a2565b600082601f830112620002c9578081fd5b81516001600160401b0380821115620002e657620002e662000489565b6040516020601f8401601f19168201810183811183821017156200030e576200030e62000489565b604052838252858401810187101562000325578485fd5b8492505b8383101562000348578583018101518284018201529182019162000329565b838311156200035957848185840101525b5095945050505050565b6000806000806080858703121562000379578384fd5b84516001600160401b038082111562000390578586fd5b6200039e88838901620002b8565b95506020870151915080821115620003b4578485fd5b620003c288838901620002b8565b94506040870151915080821115620003d8578384fd5b620003e688838901620002b8565b93506060870151915080821115620003fc578283fd5b506200040b87828801620002b8565b91505092959194509250565b6020808252818101527f4f776e61626c653a2063616c6c6572206973206e6f7420746865206f776e6572604082015260600190565b6002810460018216806200046157607f821691505b602082108114156200048357634e487b7160e01b600052602260045260246000fd5b50919050565b634e487b7160e01b600052604160045260246000fd5b61260b80620004af6000396000f3fe60806040526004361061020f5760003560e01c80635c975abb11610118578063a475b5dd116100a0578063d5abeb011161006f578063d5abeb0114610597578063da3ef23f146105ac578063e985e9c5146105cc578063f2c4ce1e146105ec578063f2fde38b1461060c5761020f565b8063a475b5dd1461052d578063b88d4fde14610542578063c668286214610562578063c87b56dd146105775761020f565b80637f00c7a6116100e75780637f00c7a6146104b05780638da5cb5b146104d057806395d89b41146104e5578063a0712d68146104fa578063a22cb4651461050d5761020f565b80635c975abb146104465780636352211e1461045b57806370a082311461047b578063715018a61461049b5761020f565b806323b872dd1161019b578063438b63001161016a578063438b6300146103a457806344a0d68a146103d15780634f6ccce7146103f1578063518302271461041157806355f804b3146104265761020f565b806323b872dd1461033c5780632f745c591461035c5780633ccfd60b1461037c57806342842e0e146103845761020f565b8063081c8c44116101e2578063081c8c44146102bb578063095ea7b3146102d057806313faede6146102f057806318160ddd14610312578063239c70ae146103275761020f565b806301ffc9a71461021457806302329a291461024a57806306fdde031461026c578063081812fc1461028e575b600080fd5b34801561022057600080fd5b5061023461022f366004611d39565b61062c565b6040516102419190611f55565b60405180910390f35b34801561025657600080fd5b5061026a610265366004611d1f565b610659565b005b34801561027857600080fd5b506102816106b4565b6040516102419190611f60565b34801561029a57600080fd5b506102ae6102a9366004611db7565b610746565b6040516102419190611ec0565b3480156102c757600080fd5b50610281610789565b3480156102dc57600080fd5b5061026a6102eb366004611cf6565b610817565b3480156102fc57600080fd5b506103056108af565b6040516102419190612470565b34801561031e57600080fd5b506103056108b5565b34801561033357600080fd5b506103056108bb565b34801561034857600080fd5b5061026a610357366004611c19565b6108c1565b34801561036857600080fd5b50610305610377366004611cf6565b6108f9565b61026a61094b565b34801561039057600080fd5b5061026a61039f366004611c19565b6109fd565b3480156103b057600080fd5b506103c46103bf366004611bcd565b610a18565b6040516102419190611f11565b3480156103dd57600080fd5b5061026a6103ec366004611db7565b610ad6565b3480156103fd57600080fd5b5061030561040c366004611db7565b610b1a565b34801561041d57600080fd5b50610234610b75565b34801561043257600080fd5b5061026a610441366004611d71565b610b83565b34801561045257600080fd5b50610234610bd9565b34801561046757600080fd5b506102ae610476366004611db7565b610be2565b34801561048757600080fd5b50610305610496366004611bcd565b610c17565b3480156104a757600080fd5b5061026a610c5b565b3480156104bc57600080fd5b5061026a6104cb366004611db7565b610ca6565b3480156104dc57600080fd5b506102ae610cea565b3480156104f157600080fd5b50610281610cf9565b61026a610508366004611db7565b610d08565b34801561051957600080fd5b5061026a610528366004611ccd565b610dc2565b34801561053957600080fd5b5061026a610dd4565b34801561054e57600080fd5b5061026a61055d366004611c54565b610e24565b34801561056e57600080fd5b50610281610e63565b34801561058357600080fd5b50610281610592366004611db7565b610e70565b3480156105a357600080fd5b50610305610f97565b3480156105b857600080fd5b5061026a6105c7366004611d71565b610f9d565b3480156105d857600080fd5b506102346105e7366004611be7565b610fef565b3480156105f857600080fd5b5061026a610607366004611d71565b61101d565b34801561061857600080fd5b5061026a610627366004611bcd565b61106f565b60006001600160e01b0319821663780e9d6360e01b14806106515750610651826110dd565b90505b919050565b61066161111d565b6001600160a01b0316610672610cea565b6001600160a01b0316146106a15760405162461bcd60e51b8152600401610698906122c5565b60405180910390fd5b6010805460ff1916911515919091179055565b6060600080546106c390612513565b80601f01602080910402602001604051908101604052809291908181526020018280546106ef90612513565b801561073c5780601f106107115761010080835404028352916020019161073c565b820191906000526020600020905b81548152906001019060200180831161071f57829003601f168201915b5050505050905090565b600061075182611121565b61076d5760405162461bcd60e51b815260040161069890612279565b506000908152600460205260409020546001600160a01b031690565b6011805461079690612513565b80601f01602080910402602001604051908101604052809291908181526020018280546107c290612513565b801561080f5780601f106107e45761010080835404028352916020019161080f565b820191906000526020600020905b8154815290600101906020018083116107f257829003601f168201915b505050505081565b600061082282610be2565b9050806001600160a01b0316836001600160a01b031614156108565760405162461bcd60e51b815260040161069890612392565b806001600160a01b031661086861111d565b6001600160a01b031614806108845750610884816105e761111d565b6108a05760405162461bcd60e51b815260040161069890612154565b6108aa838361113e565b505050565b600d5481565b60085490565b600f5481565b6108d26108cc61111d565b826111ac565b6108ee5760405162461bcd60e51b8152600401610698906123d3565b6108aa838383611231565b600061090483610c17565b82106109225760405162461bcd60e51b815260040161069890611f73565b506001600160a01b03919091166000908152600660209081526040808320938352929052205490565b61095361111d565b6001600160a01b0316610964610cea565b6001600160a01b03161461098a5760405162461bcd60e51b8152600401610698906122c5565b6000610994610cea565b6001600160a01b0316476040516109aa90611ebd565b60006040518083038185875af1925050503d80600081146109e7576040519150601f19603f3d011682016040523d82523d6000602084013e6109ec565b606091505b50509050806109fa57600080fd5b50565b6108aa83838360405180602001604052806000815250610e24565b60606000610a2583610c17565b905060008167ffffffffffffffff811115610a5057634e487b7160e01b600052604160045260246000fd5b604051908082528060200260200182016040528015610a79578160200160208202803683370190505b50905060005b82811015610ace57610a9185826108f9565b828281518110610ab157634e487b7160e01b600052603260045260246000fd5b602090810291909101015280610ac68161254e565b915050610a7f565b509392505050565b610ade61111d565b6001600160a01b0316610aef610cea565b6001600160a01b031614610b155760405162461bcd60e51b8152600401610698906122c5565b600d55565b6000610b246108b5565b8210610b425760405162461bcd60e51b815260040161069890612424565b60088281548110610b6357634e487b7160e01b600052603260045260246000fd5b90600052602060002001549050919050565b601054610100900460ff1681565b610b8b61111d565b6001600160a01b0316610b9c610cea565b6001600160a01b031614610bc25760405162461bcd60e51b8152600401610698906122c5565b8051610bd590600b906020840190611a9d565b5050565b60105460ff1681565b6000818152600260205260408120546001600160a01b0316806106515760405162461bcd60e51b8152600401610698906121fb565b60006001600160a01b038216610c3f5760405162461bcd60e51b8152600401610698906121b1565b506001600160a01b031660009081526003602052604090205490565b610c6361111d565b6001600160a01b0316610c74610cea565b6001600160a01b031614610c9a5760405162461bcd60e51b8152600401610698906122c5565b610ca4600061135e565b565b610cae61111d565b6001600160a01b0316610cbf610cea565b6001600160a01b031614610ce55760405162461bcd60e51b8152600401610698906122c5565b600f55565b600a546001600160a01b031690565b6060600180546106c390612513565b6000610d126108b5565b60105490915060ff1615610d2557600080fd5b60008211610d3257600080fd5b600f54821115610d4157600080fd5b600e54610d4e8383612485565b1115610d5957600080fd5b610d61610cea565b6001600160a01b0316336001600160a01b031614610d935781600d54610d8791906124b1565b341015610d9357600080fd5b60015b8281116108aa57610db033610dab8385612485565b6113b0565b80610dba8161254e565b915050610d96565b610bd5610dcd61111d565b83836113ca565b610ddc61111d565b6001600160a01b0316610ded610cea565b6001600160a01b031614610e135760405162461bcd60e51b8152600401610698906122c5565b6010805461ff001916610100179055565b610e35610e2f61111d565b836111ac565b610e515760405162461bcd60e51b8152600401610698906123d3565b610e5d8484848461146d565b50505050565b600c805461079690612513565b6060610e7b82611121565b610e975760405162461bcd60e51b815260040161069890612343565b601054610100900460ff16610f385760118054610eb390612513565b80601f0160208091040260200160405190810160405280929190818152602001828054610edf90612513565b8015610f2c5780601f10610f0157610100808354040283529160200191610f2c565b820191906000526020600020905b815481529060010190602001808311610f0f57829003601f168201915b50505050509050610654565b6000610f426114a0565b90506000815111610f625760405180602001604052806000815250610f90565b80610f6c846114af565b600c604051602001610f8093929190611dfb565b6040516020818303038152906040525b9392505050565b600e5481565b610fa561111d565b6001600160a01b0316610fb6610cea565b6001600160a01b031614610fdc5760405162461bcd60e51b8152600401610698906122c5565b8051610bd590600c906020840190611a9d565b6001600160a01b03918216600090815260056020908152604080832093909416825291909152205460ff1690565b61102561111d565b6001600160a01b0316611036610cea565b6001600160a01b03161461105c5760405162461bcd60e51b8152600401610698906122c5565b8051610bd5906011906020840190611a9d565b61107761111d565b6001600160a01b0316611088610cea565b6001600160a01b0316146110ae5760405162461bcd60e51b8152600401610698906122c5565b6001600160a01b0381166110d45760405162461bcd60e51b815260040161069890612010565b6109fa8161135e565b60006001600160e01b031982166380ac58cd60e01b148061110e57506001600160e01b03198216635b5e139f60e01b145b806106515750610651826115ca565b3390565b6000908152600260205260409020546001600160a01b0316151590565b600081815260046020526040902080546001600160a01b0319166001600160a01b038416908117909155819061117382610be2565b6001600160a01b03167f8c5be1e5ebec7d5bd14f71427d1e84f3dd0314c0f7b2291e5b200ac8c7c3b92560405160405180910390a45050565b60006111b782611121565b6111d35760405162461bcd60e51b815260040161069890612108565b60006111de83610be2565b9050806001600160a01b0316846001600160a01b031614806112195750836001600160a01b031661120e84610746565b6001600160a01b0316145b8061122957506112298185610fef565b949350505050565b826001600160a01b031661124482610be2565b6001600160a01b03161461126a5760405162461bcd60e51b8152600401610698906122fa565b6001600160a01b0382166112905760405162461bcd60e51b81526004016106989061208d565b61129b8383836115e3565b6112a660008261113e565b6001600160a01b03831660009081526003602052604081208054600192906112cf9084906124d0565b90915550506001600160a01b03821660009081526003602052604081208054600192906112fd908490612485565b909155505060008181526002602052604080822080546001600160a01b0319166001600160a01b0386811691821790925591518493918716917fddf252ad1be2c89b69c2b068fc378daa952ba7f163c4a11628f55a4df523b3ef91a4505050565b600a80546001600160a01b038381166001600160a01b0319831681179093556040519116919082907f8be0079c531659141344cd1fd0a4f28419497f9722a3daafe3b4186f6b6457e090600090a35050565b610bd582826040518060200160405280600081525061166c565b816001600160a01b0316836001600160a01b031614156113fc5760405162461bcd60e51b8152600401610698906120d1565b6001600160a01b0383811660008181526005602090815260408083209487168084529490915290819020805460ff1916851515179055517f17307eab39ab6107e8899845ad3d59bd9653f200f220920489ca2b5937696c3190611460908590611f55565b60405180910390a3505050565b611478848484611231565b6114848484848461169f565b610e5d5760405162461bcd60e51b815260040161069890611fbe565b6060600b80546106c390612513565b6060816114d457506040805180820190915260018152600360fc1b6020820152610654565b8160005b81156114fe57806114e88161254e565b91506114f79050600a8361249d565b91506114d8565b60008167ffffffffffffffff81111561152757634e487b7160e01b600052604160045260246000fd5b6040519080825280601f01601f191660200182016040528015611551576020820181803683370190505b5090505b8415611229576115666001836124d0565b9150611573600a86612569565b61157e906030612485565b60f81b8183815181106115a157634e487b7160e01b600052603260045260246000fd5b60200101906001600160f81b031916908160001a9053506115c3600a8661249d565b9450611555565b6001600160e01b031981166301ffc9a760e01b14919050565b6115ee8383836108aa565b6001600160a01b03831661160a57611605816117ba565b61162d565b816001600160a01b0316836001600160a01b03161461162d5761162d83826117fe565b6001600160a01b038216611649576116448161189b565b6108aa565b826001600160a01b0316826001600160a01b0316146108aa576108aa8282611974565b61167683836119b8565b611683600084848461169f565b6108aa5760405162461bcd60e51b815260040161069890611fbe565b60006116b3846001600160a01b0316611a97565b156117af57836001600160a01b031663150b7a026116cf61111d565b8786866040518563ffffffff1660e01b81526004016116f19493929190611ed4565b602060405180830381600087803b15801561170b57600080fd5b505af192505050801561173b575060408051601f3d908101601f1916820190925261173891810190611d55565b60015b611795573d808015611769576040519150601f19603f3d011682016040523d82523d6000602084013e61176e565b606091505b50805161178d5760405162461bcd60e51b815260040161069890611fbe565b805181602001fd5b6001600160e01b031916630a85bd0160e11b149050611229565b506001949350505050565b600880546000838152600960205260408120829055600182018355919091527ff3f7a9fe364faab93b216da50a3214154f22a0a2b415b23a84c8169e8b636ee30155565b6000600161180b84610c17565b61181591906124d0565b600083815260076020526040902054909150808214611868576001600160a01b03841660009081526006602090815260408083208584528252808320548484528184208190558352600790915290208190555b5060009182526007602090815260408084208490556001600160a01b039094168352600681528383209183525290812055565b6008546000906118ad906001906124d0565b600083815260096020526040812054600880549394509092849081106118e357634e487b7160e01b600052603260045260246000fd5b90600052602060002001549050806008838154811061191257634e487b7160e01b600052603260045260246000fd5b600091825260208083209091019290925582815260099091526040808220849055858252812055600880548061195857634e487b7160e01b600052603160045260246000fd5b6001900381819060005260206000200160009055905550505050565b600061197f83610c17565b6001600160a01b039093166000908152600660209081526040808320868452825280832085905593825260079052919091209190915550565b6001600160a01b0382166119de5760405162461bcd60e51b815260040161069890612244565b6119e781611121565b15611a045760405162461bcd60e51b815260040161069890612056565b611a10600083836115e3565b6001600160a01b0382166000908152600360205260408120805460019290611a39908490612485565b909155505060008181526002602052604080822080546001600160a01b0319166001600160a01b03861690811790915590518392907fddf252ad1be2c89b69c2b068fc378daa952ba7f163c4a11628f55a4df523b3ef908290a45050565b3b151590565b828054611aa990612513565b90600052602060002090601f016020900481019282611acb5760008555611b11565b82601f10611ae457805160ff1916838001178555611b11565b82800160010185558215611b11579182015b82811115611b11578251825591602001919060010190611af6565b50611b1d929150611b21565b5090565b5b80821115611b1d5760008155600101611b22565b600067ffffffffffffffff80841115611b5157611b516125a9565b604051601f8501601f191681016020018281118282101715611b7557611b756125a9565b604052848152915081838501861015611b8d57600080fd5b8484602083013760006020868301015250509392505050565b80356001600160a01b038116811461065457600080fd5b8035801515811461065457600080fd5b600060208284031215611bde578081fd5b610f9082611ba6565b60008060408385031215611bf9578081fd5b611c0283611ba6565b9150611c1060208401611ba6565b90509250929050565b600080600060608486031215611c2d578081fd5b611c3684611ba6565b9250611c4460208501611ba6565b9150604084013590509250925092565b60008060008060808587031215611c69578081fd5b611c7285611ba6565b9350611c8060208601611ba6565b925060408501359150606085013567ffffffffffffffff811115611ca2578182fd5b8501601f81018713611cb2578182fd5b611cc187823560208401611b36565b91505092959194509250565b60008060408385031215611cdf578182fd5b611ce883611ba6565b9150611c1060208401611bbd565b60008060408385031215611d08578182fd5b611d1183611ba6565b946020939093013593505050565b600060208284031215611d30578081fd5b610f9082611bbd565b600060208284031215611d4a578081fd5b8135610f90816125bf565b600060208284031215611d66578081fd5b8151610f90816125bf565b600060208284031215611d82578081fd5b813567ffffffffffffffff811115611d98578182fd5b8201601f81018413611da8578182fd5b61122984823560208401611b36565b600060208284031215611dc8578081fd5b5035919050565b60008151808452611de78160208601602086016124e7565b601f01601f19169290920160200192915050565b600084516020611e0e8285838a016124e7565b855191840191611e218184848a016124e7565b8554920191839060028104600180831680611e3d57607f831692505b858310811415611e5b57634e487b7160e01b88526022600452602488fd5b808015611e6f5760018114611e8057611eac565b60ff19851688528388019550611eac565b611e898b612479565b895b85811015611ea45781548a820152908401908801611e8b565b505083880195505b50939b9a5050505050505050505050565b90565b6001600160a01b0391909116815260200190565b6001600160a01b0385811682528416602082015260408101839052608060608201819052600090611f0790830184611dcf565b9695505050505050565b6020808252825182820181905260009190848201906040850190845b81811015611f4957835183529284019291840191600101611f2d565b50909695505050505050565b901515815260200190565b600060208252610f906020830184611dcf565b6020808252602b908201527f455243373231456e756d657261626c653a206f776e657220696e646578206f7560408201526a74206f6620626f756e647360a81b606082015260800190565b60208082526032908201527f4552433732313a207472616e7366657220746f206e6f6e20455243373231526560408201527131b2b4bb32b91034b6b83632b6b2b73a32b960711b606082015260800190565b60208082526026908201527f4f776e61626c653a206e6577206f776e657220697320746865207a65726f206160408201526564647265737360d01b606082015260800190565b6020808252601c908201527f4552433732313a20746f6b656e20616c7265616479206d696e74656400000000604082015260600190565b60208082526024908201527f4552433732313a207472616e7366657220746f20746865207a65726f206164646040820152637265737360e01b606082015260800190565b60208082526019908201527f4552433732313a20617070726f766520746f2063616c6c657200000000000000604082015260600190565b6020808252602c908201527f4552433732313a206f70657261746f7220717565727920666f72206e6f6e657860408201526b34b9ba32b73a103a37b5b2b760a11b606082015260800190565b60208082526038908201527f4552433732313a20617070726f76652063616c6c6572206973206e6f74206f7760408201527f6e6572206e6f7220617070726f76656420666f7220616c6c0000000000000000606082015260800190565b6020808252602a908201527f4552433732313a2062616c616e636520717565727920666f7220746865207a65604082015269726f206164647265737360b01b606082015260800190565b60208082526029908201527f4552433732313a206f776e657220717565727920666f72206e6f6e657869737460408201526832b73a103a37b5b2b760b91b606082015260800190565b6020808252818101527f4552433732313a206d696e7420746f20746865207a65726f2061646472657373604082015260600190565b6020808252602c908201527f4552433732313a20617070726f76656420717565727920666f72206e6f6e657860408201526b34b9ba32b73a103a37b5b2b760a11b606082015260800190565b6020808252818101527f4f776e61626c653a2063616c6c6572206973206e6f7420746865206f776e6572604082015260600190565b60208082526029908201527f4552433732313a207472616e73666572206f6620746f6b656e2074686174206960408201526839903737ba1037bbb760b91b606082015260800190565b6020808252602f908201527f4552433732314d657461646174613a2055524920717565727920666f72206e6f60408201526e3732bc34b9ba32b73a103a37b5b2b760891b606082015260800190565b60208082526021908201527f4552433732313a20617070726f76616c20746f2063757272656e74206f776e656040820152603960f91b606082015260800190565b60208082526031908201527f4552433732313a207472616e736665722063616c6c6572206973206e6f74206f6040820152701ddb995c881b9bdc88185c1c1c9bdd9959607a1b606082015260800190565b6020808252602c908201527f455243373231456e756d657261626c653a20676c6f62616c20696e646578206f60408201526b7574206f6620626f756e647360a01b606082015260800190565b90815260200190565b60009081526020902090565b600082198211156124985761249861257d565b500190565b6000826124ac576124ac612593565b500490565b60008160001904831182151516156124cb576124cb61257d565b500290565b6000828210156124e2576124e261257d565b500390565b60005b838110156125025781810151838201526020016124ea565b83811115610e5d5750506000910152565b60028104600182168061252757607f821691505b6020821081141561254857634e487b7160e01b600052602260045260246000fd5b50919050565b60006000198214156125625761256261257d565b5060010190565b60008261257857612578612593565b500690565b634e487b7160e01b600052601160045260246000fd5b634e487b7160e01b600052601260045260246000fd5b634e487b7160e01b600052604160045260246000fd5b6001600160e01b0319811681146109fa57600080fdfea2646970667358221220f2789e32236fd107d0c724ae29ba9cae72b688c70250efb2550fc5a10125f92c64736f6c63430008000033",
  "immutableReferences": {},
  "source": "// SPDX-License-Identifier: MIT\r\n\r\n// Amended by HashLips\r\n/**\r\n    !Disclaimer!\r\n    These contracts have been used to create tutorials,\r\n    and was created for the purpose to teach people\r\n    how to create smart contracts on the blockchain.\r\n    please review this code on your own before using any of\r\n    the following code for production.\r\n    HashLips will not be liable in any way if for the use \r\n    of the code. That being said, the code has been tested \r\n    to the best of the developers' knowledge to work as intended.\r\n*/\r\n\r\npragma solidity >=0.7.0 <0.9.0;\r\n\r\nimport \"@openzeppelin/contracts/token/ERC721/extensions/ERC721Enumerable.sol\";\r\nimport \"@openzeppelin/contracts/access/Ownable.sol\";\r\n\r\ncontract SmartContract is ERC721Enumerable, Ownable {\r\n  using Strings for uint256;\r\n\r\n  string baseURI;\r\n  string public baseExtension = \".json\";\r\n  uint256 public cost = 0.05 ether;\r\n  uint256 public maxSupply = 10000;\r\n  uint256 public maxMintAmount = 20;\r\n  bool public paused = false;\r\n  bool public revealed = true;\r\n  string public notRevealedUri;\r\n\r\n  constructor(\r\n    string memory _name,\r\n    string memory _symbol,\r\n    string memory _initBaseURI,\r\n    string memory _initNotRevealedUri\r\n  ) ERC721(_name, _symbol) {\r\n    setBaseURI(_initBaseURI);\r\n    setNotRevealedURI(_initNotRevealedUri);\r\n  }\r\n\r\n  // internal\r\n  function _baseURI() internal view virtual override returns (string memory) {\r\n    return baseURI;\r\n  }\r\n\r\n  // public\r\n  function mint(uint256 _mintAmount) public payable {\r\n    uint256 supply = totalSupply();\r\n    require(!paused);\r\n    require(_mintAmount > 0);\r\n    require(_mintAmount <= maxMintAmount);\r\n    require(supply + _mintAmount <= maxSupply);\r\n\r\n    if (msg.sender != owner()) {\r\n      require(msg.value >= cost * _mintAmount);\r\n    }\r\n\r\n    for (uint256 i = 1; i <= _mintAmount; i++) {\r\n      _safeMint(msg.sender, supply + i);\r\n    }\r\n  }\r\n\r\n  function walletOfOwner(address _owner)\r\n    public\r\n    view\r\n    returns (uint256[] memory)\r\n  {\r\n    uint256 ownerTokenCount = balanceOf(_owner);\r\n    uint256[] memory tokenIds = new uint256[](ownerTokenCount);\r\n    for (uint256 i; i < ownerTokenCount; i++) {\r\n      tokenIds[i] = tokenOfOwnerByIndex(_owner, i);\r\n    }\r\n    return tokenIds;\r\n  }\r\n\r\n  function tokenURI(uint256 tokenId)\r\n    public\r\n    view\r\n    virtual\r\n    override\r\n    returns (string memory)\r\n  {\r\n    require(\r\n      _exists(tokenId),\r\n      \"ERC721Metadata: URI query for nonexistent token\"\r\n    );\r\n    \r\n    if(revealed == false) {\r\n        return notRevealedUri;\r\n    }\r\n\r\n    string memory currentBaseURI = _baseURI();\r\n    return bytes(currentBaseURI).length > 0\r\n        ? string(abi.encodePacked(currentBaseURI, tokenId.toString(), baseExtension))\r\n        : \"\";\r\n  }\r\n\r\n  //only owner\r\n  function reveal() public onlyOwner {\r\n      revealed = true;\r\n  }\r\n  \r\n  function setCost(uint256 _newCost) public onlyOwner {\r\n    cost = _newCost;\r\n  }\r\n\r\n  function setmaxMintAmount(uint256 _newmaxMintAmount) public onlyOwner {\r\n    maxMintAmount = _newmaxMintAmount;\r\n  }\r\n  \r\n  function setNotRevealedURI(string memory _notRevealedURI) public onlyOwner {\r\n    notRevealedUri = _notRevealedURI;\r\n  }\r\n\r\n  function setBaseURI(string memory _newBaseURI) public onlyOwner {\r\n    baseURI = _newBaseURI;\r\n  }\r\n\r\n  function setBaseExtension(string memory _newBaseExtension) public onlyOwner {\r\n    baseExtension = _newBaseExtension;\r\n  }\r\n\r\n  function pause(bool _state) public onlyOwner {\r\n    paused = _state;\r\n  }\r\n \r\n  function withdraw() public payable onlyOwner {\r\n    // This will pay HashLips 5% of the initial sale.\r\n    // You can remove this if you want, or keep it in to support HashLips and his channel.\r\n    // =============================================================================\r\n    //(bool hs, ) = payable(0x943590A42C27D08e3744202c4Ae5eD55c2dE240D).call{value: address(this).balance * 5 / 100}(\"\");\r\n    //require(hs);\r\n    // =============================================================================\r\n    \r\n    // This will payout the owner 95% of the contract balance.\r\n    // Do not remove this otherwise you will not be able to withdraw the funds.\r\n    // =============================================================================\r\n    (bool os, ) = payable(owner()).call{value: address(this).balance}(\"\");\r\n    require(os);\r\n    // =============================================================================\r\n  }\r\n}",
  "sourcePath": "C:/Users/khanjah1/Documents/github-projects/frontend_base_dapp/contracts/SmartContract.sol",
  "compiler": {
    "name": "solc",
    "version": "0.8.0+commit.c7dfd78e.Emscripten.clang"
  },
  "schemaVersion": "3.4.1",
  "updatedAt": "2021-12-29T16:26:17.637Z",
  "networkType": "ethereum",
  "devdoc": {
    "kind": "dev",
    "methods": {
      "approve(address,uint256)": {
        "details": "See {IERC721-approve}."
      },
      "balanceOf(address)": {
        "details": "See {IERC721-balanceOf}."
      },
      "getApproved(uint256)": {
        "details": "See {IERC721-getApproved}."
      },
      "isApprovedForAll(address,address)": {
        "details": "See {IERC721-isApprovedForAll}."
      },
      "name()": {
        "details": "See {IERC721Metadata-name}."
      },
      "owner()": {
        "details": "Returns the address of the current owner."
      },
      "ownerOf(uint256)": {
        "details": "See {IERC721-ownerOf}."
      },
      "renounceOwnership()": {
        "details": "Leaves the contract without owner. It will not be possible to call `onlyOwner` functions anymore. Can only be called by the current owner. NOTE: Renouncing ownership will leave the contract without an owner, thereby removing any functionality that is only available to the owner."
      },
      "safeTransferFrom(address,address,uint256)": {
        "details": "See {IERC721-safeTransferFrom}."
      },
      "safeTransferFrom(address,address,uint256,bytes)": {
        "details": "See {IERC721-safeTransferFrom}."
      },
      "setApprovalForAll(address,bool)": {
        "details": "See {IERC721-setApprovalForAll}."
      },
      "supportsInterface(bytes4)": {
        "details": "See {IERC165-supportsInterface}."
      },
      "symbol()": {
        "details": "See {IERC721Metadata-symbol}."
      },
      "tokenByIndex(uint256)": {
        "details": "See {IERC721Enumerable-tokenByIndex}."
      },
      "tokenOfOwnerByIndex(address,uint256)": {
        "details": "See {IERC721Enumerable-tokenOfOwnerByIndex}."
      },
      "tokenURI(uint256)": {
        "details": "See {IERC721Metadata-tokenURI}."
      },
      "totalSupply()": {
        "details": "See {IERC721Enumerable-totalSupply}."
      },
      "transferFrom(address,address,uint256)": {
        "details": "See {IERC721-transferFrom}."
      },
      "transferOwnership(address)": {
        "details": "Transfers ownership of the contract to a new account (`newOwner`). Can only be called by the current owner."
      }
    },
    "version": 1
  },
  "userdoc": {
    "kind": "user",
    "methods": {},
    "version": 1
  }
}